:100000000C9434000C9446000C9446000C9446006A
:100010000C9446000C9446000C9446000C94460048
:100020000C9446000C9446000C9446000C94460038
:100030000C9446000C9446000C9446000C94460028
:100040000C9446000C9446000C9446000C94460018
:100050000C9446000C9446000C9446000C94460008
:100060000C9446000C94460011241FBECFEFD4E040
:10007000DEBFCDBF21E0A0E0B1E001C01D92A03005
:10008000B207E1F70E9448000C9477000C9400003E
:1000900087B187B988B1806388B9219A10928500A9
:1000A00010928400E0E8F0E08081826C8083E1E8D7
:1000B000F0E0808183618083E6E8F0E084E89EE1FF
:1000C00091838083808191818C529140A8E8B0E037
:1000D00011969C938E938DE992E091838083808129
:1000E00091818C52914011969C938E93FFCFF894FE
:0200F000FFCF40
:00000001FF
